:020000040800F2
:10000000B806002089010008430D0008750B0008A0
:10001000410D00088F020008DD0D000800000000FF
:10002000000000000000000000000000470D000874
:100030009102000800000000450D0008790D00083D
:10004000A3010008A3010008A3010008A301000800
:10005000A3010008A3010008A3010008A3010008F0
:10006000A3010008A3010008A3010008A3010008E0
:10007000A3010008A3010008A3010008A3010008D0
:10008000A3010008A3010008A3010008A3010008C0
:10009000A3010008A3010008A3010008A3010008B0
:1000A000A3010008A3010008A3010008A3010008A0
:1000B000A3010008A3010008A3010008A301000890
:1000C000A3010008A3010008A3010008A301000880
:1000D000A3010008A3010008A3010008A301000870
:1000E000A3010008A3010008A301000800F002F822
:1000F00000F03AF80AA090E8000C82448344AAF188
:100100000107DA4501D100F02FF8AFF2090EBAE885
:100110000F0013F0010F18BFFB1A43F0010318473B
:100120005C0D00007C0D0000103A24BF78C878C137
:10013000FAD8520724BF30C830C144BF04680C60ED
:10014000704700000023002400250026103A28BF35
:1001500078C1FBD8520728BF30C148BF0B60704739
:100160001FB51FBD10B510BD00F058F81146FFF7C0
:10017000F7FF00F04FFE00F076F803B4FFF7F2FF50
:1001800003BC00F07DF8000009488047094800479B
:10019000FEE7FEE7FEE7FEE7FEE7FEE7FEE7FEE737
:1001A000FEE7FEE704480549054A064B7047000094
:1001B000DB0D0008ED000008B8000020B8060020A4
:1001C000B8020020B80200204FF0000200B513462C
:1001D00094469646203922BFA0E80C50A0E80C5067
:1001E000B1F12001BFF4F7AF090728BFA0E80C5018
:1001F00048BF0CC05DF804EB890028BF40F8042B11
:1002000008BF704748BF20F8022B11F0804F18BF7D
:1002100000F8012B7047704770477047754600F033
:100220002BF8AE4605006946534620F00700854688
:1002300018B020B5FFF7B6FFBDE820404FF000062C
:100240004FF000074FF000084FF0000B21F00701BE
:10025000AC46ACE8C009ACE8C009ACE8C009ACE801
:10026000C0098D46704710B50446AFF300802046A4
:10027000BDE81040FFF781BF0048704758000020DC
:1002800001491820ABBEFEE7260002007047FEE7DA
:100290007047000070B5164D2021284600F070F917
:1002A000144C10212071284600F06AF96071082171
:1002B000284600F065F9104DA0714FF40041284622
:1002C00000F05EF9E071E914284600F059F9207257
:1002D0002915284600F054F960726915284600F087
:1002E0004FF92070A915284600F04AF9A07270BD98
:1002F000000C014000000020000801401D4810B51E
:100300000146047991F902101B4B4A1C52B2012C90
:1003100001D1C47A1CB14479012C02D003E001243C
:1003200006E0047B1CB18479012C04D005E0022492
:100330005C54827010BD447B1CB1C479012C02D086
:1003400003E00324F4E7847B1CB1047A012C02D07F
:1003500003E00424ECE7C47B1CB1447A012C02D0F6
:1003600003E00524E4E7047C0CB1817010BD062491
:10037000DEE70000000000202400002070B50446E5
:1003800000F008F90546601C02D0044800780444D7
:1003900000F000F9401BA042FAD370BD1400002009
:1003A0002DE9F84FDFF8B8910024A9F1040B23469A
:1003B0000F2709F1040AABF1040EC9E00125A5409D
:1003C0002A40AA427DD1674ED1F804C0ACEB0608A2
:1003D000B44532D014DCBCF1030F3AD009DCBCF1D7
:1003E000000F2AD0BCF1010F1CD0BCF1020F31D19B
:1003F0001DE0BCF1110F17D0BCF1120F2AD119E08A
:10040000B8F5881F19D006DCB8F5803F15D0B8F5CF
:10041000801F1FD111E0B8F5001F0ED0B8F5041FE2
:1004200018D10AE0CB6815E0CB681B1D12E0CB6841
:1004300008330FE0CB680C330CE08B682BB1012B39
:100440004FF0080303D0456104E0042302E0056196
:1004500000E00023FF2A01D8064601E000F104066F
:100460004FEA840501D9A5F12005D6F8008007FAE6
:1004700005FC28EA0C0803FA05F548EA0508C6F861
:1004800000804D68ED0062D5374DAE6946F001063B
:10049000AE61AD6924F0030605F001050095334D0A
:1004A00006EB050CDCF80850A607360F07FA06F82D
:1004B00025EA0805DFF8B880404503D14FF0000871
:1004C00017E044E0DFF8AC80404502D14FF001086E
:1004D0000FE0DFF8A480404502D14FF0020808E0A9
:1004E000DFF89880404502D14FF0030801E04FF05B
:1004F000040808FA06F848EA0508CCF808804D68B0
:10050000D9F80060ED024D4601D5164300E0964350
:100510002E604D68DAF80060AD02554601D51643ED
:1005200000E096432E604D68DBF80060AD035D4649
:1005300001D5164300E096432E604D68DEF800605A
:10054000ED03754601D5164300E096432E60641C0A
:100550000D682A46E5407FF431AFBDE8F88F000012
:10056000080401400000111000100240000001408A
:1005700000080140000C014000100140001401403F
:100580008068084000D0012070470AB101617047BF
:100590000904FBE701488068704700001400002050
:1005A000024881680278114481607047140000207D
:1005B000074810B5016841F010010160032000F008
:1005C00067F80F2000F006F800F024F8002010BDB6
:1005D0000020024070B50D4D04464FF47A71287822
:1005E000B1FBF0F00A490968B1FBF0F000F0AEFA97
:1005F00048B9102C07D200222146501E00F028F8DE
:1006000000206C6070BD012070BD0000140000204F
:10061000200000200C4808B5816941F0010181618A
:10062000816901F001010091C16941F08051C1610E
:10063000C06900F0805000900448416821F0E061FA
:1006400041F00071416008BD00100240000001400F
:10065000F0B40E4B1B680C46C3F30223C3F107052D
:10066000042D00D90425191D072901D2002300E01B
:10067000DB1E012606FA05F1491E214099409E40E5
:10068000761E16403143F0BC00F0A9BB0CED00E033
:10069000064900F0070208684FF6FF03184040EAD9
:1006A0000220034A10430860704700000CED00E090
:1006B0000000FA052DE9F0470F46050061D0434ED2
:1006C000306800F00700B84209D2306820F0070017
:1006D00038433060306800F00700B84251D12868D4
:1006E0003B4C810712D5400703D5606840F4E060B9
:1006F00060602878000703D5606840F4605060604F
:100700006068A96820F0F000084360602878C0079E
:1007100028D06868012810D02168022810D08907E5
:1007200000292EDA616821F0030101436160FFF7BF
:1007300031FF804641F288390DE021688903EFE7F7
:100740008901EDE7FFF726FFA0EB0801494502D933
:100750000320BDE8F0876068696800F00C00B0EB2A
:10076000810FEFD1306800F00700B8420BD9306834
:1007700020F0070038433060306800F00700B842CE
:1007800001D00120E5E72878400705D56068E968D1
:1007900020F4E060084360602878000706D56068B0
:1007A000296920F4605040EAC100606000F018F848
:1007B0006168084AC1F30311515CC84006490860EA
:1007C00006480068FFF706FF0020C2E7002002404D
:1007D000001002406A0E00082000002018000020CF
:1007E0000E4A51680E4801F00C03042B11D0082B5F
:1007F0000FD10C48C1F38343C903C05C0AD55168CB
:10080000084AC1F34041921E515C054A5043B0FB77
:10081000F1F070470449484370470000001002405F
:1008200000127A005A0E000800093D002DE9F84F29
:10083000040070D02078C04DC00749D06868C0F36C
:100840008100012807D06868C0F38100022809D11F
:100850006868C00306D52868800339D56068002819
:10086000E7D035E06068B0F5803F0BD010B1B0F54F
:10087000A02F11D0286820F480302860286820F448
:10088000802002E0286840F480302860606890B1E1
:10089000FFF780FE06460AE0286840F480202860C2
:1008A000F0E700BFFFF776FE801B642873D8286846
:1008B0008003F7D50CE0FFF76DFE064605E000BFAC
:1008C000FFF768FE801B6428F0D828688003F7D4FF
:1008D00020789A4E80074FF001094FF0000839D573
:1008E000686810F00C0F07D06868C0F38100022818
:1008F00009D16868C00306D42868800714D5206928
:10090000012808D110E02069B0B1C6F80090FFF7C7
:1009100041FE074605E00AE1FFF73CFEC01B022846
:10092000C4D828688007F7D52868616920F0F800E6
:1009300040EAC10028600DE0C6F80080FFF72AFEFB
:10094000074604E0FFF726FEC01B022823D82868CC
:100950008007F7D4207800072CD57948A169D9B150
:10096000C0F80090FFF716FE074604E0FFF712FEFE
:10097000C01B02280FD8686A8007F7D571484FF46A
:10098000FA510068B0FBF1F0009000BF0098411EE2
:100990000091FAD20EE080E0C0F80080FFF7FAFD87
:1009A000074604E0FFF7F6FDC01B022875D8686A09
:1009B0008007F7D42078400760D5E8690027C00099
:1009C00008D4E86940F08050E861E869012700F048
:1009D000805000905C480168C90513D401688346C3
:1009E00041F480710160FFF7D5FD824606E000BF4B
:1009F000FFF7D0FDA0EB0A0064284ED8DBF800001A
:100A0000C005F5D5E06801280AD008B1052813D043
:100A1000286A20F001002862286A20F0040002E021
:100A2000286A40F001002862E06841F2883B98B1F2
:100A3000FFF7B0FD82460BE0286A40F00400286210
:100A4000EEE700BFFFF7A6FDA0EB0A0159455AD813
:100A5000286A8007F6D50CE0FFF79CFD824605E08A
:100A6000FFF798FDA0EB0A0159454CD8286A80078A
:100A7000F6D41FB1E86920F08050E861E06988B3DE
:100A80006968C1F38101022944D00228C6F8608058
:100A900004D0FFF77FFD044638E034E0FFF77AFD2D
:100AA000074604E0FFF776FDC01B02282BD8286814
:100AB0008001F7D4206AB0F5803F05D16868A1684D
:100AC00020F4003008436860D4E9080108436968ED
:100AD00021F4741108436860C6F86090FFF75AFD6E
:100AE000044606E025E000BFFFF754FD001B022886
:100AF00009D828688001F7D51BE000BFFFF74AFD41
:100B0000001B022802D90320BDE8F88F2868800165
:100B1000F4D40EE00128F7D06868226A00F480312E
:100B2000914204D1616A00F47010884201D0012022
:100B3000EAE70020E8E7000000100240000042421F
:100B400080044242200000200070004010B5401E8A
:100B5000B0F1807F01D3012010BD4FF0E02460612F
:100B60000F21601700F03BF90020A06107202061F1
:100B7000002010BDFEE7000008480179C1724179EC
:100B8000017381794173C1798173017AC173417AAB
:100B9000017401784170817A41747047000000202F
:100BA0002DE9F047354F364E364C00254FF4FA7894
:100BB0007857072852D2DFE800F051040F222D3871
:100BC0004300012202212046FFF7DFFC4046FFF7E9
:100BD000D5FB0022022109E0012208212046FFF76F
:100BE000D4FC4046FFF7CAFB002208214FEA04006C
:100BF000FFF7CBFC6D1C332DDADBBDE8F08701225B
:100C000020212046FFF7C1FC4046FFF7B7FB00223A
:100C10002021EBE7012280212046FFF7B6FC404669
:100C2000FFF7ACFB00228021E0E7012202213046E1
:100C3000FFF7ABFC4046FFF7A1FB002202210BE0CF
:100C40004FF40069012249463046FFF79EFC4046BA
:100C5000FFF794FB002249463046C9E700220221F3
:100C60002046FFF792FC002208212046FFF78DFC6A
:100C7000002220212046FFF788FCD3E72400002033
:100C8000000C0140000801402DE9F04385B000242C
:100C900028480094019402940394816941F0200152
:100CA0008161816901F020010491816941F00401B1
:100CB0008161816901F004010491816941F00801B9
:100CC00081618069DFF8708000F0080004900022E4
:100CD000AA214046FFF759FCDFF8609040F6020772
:100CE000002239464846FFF750FCAA20012502267B
:100CF000CDE90005CDE9024669464046FFF750FBC5
:100D000000970396CDE9015469464846FFF748FB32
:100D10004FF40F408DE8310069464046FFF740FB35
:100D200038208DE8310069464846FFF739FB05B0A9
:100D3000BDE8F0830010024000080140000C0140B3
:100D4000FEE7FEE7704770470A4B00B518780128A8
:100D500001D1587840B1987A012804D1587C0028F4
:100D600001D10120D87000BD0020987000F048F833
:100D70000220F7E700000020FFF712BC30B58FB06B
:100D800028216846FFF720FA14210AA8FFF71CFA69
:100D900001210804CDE900100024029402250491E9
:100DA000CDE907504FF4E01009906846FFF73EFD8B
:100DB00008B172B6FEE70F20CDE90A054FF4806056
:100DC000CDE90C4002210AA80E94FFF773FC00281D
:100DD00001D072B6FEE70FB030BD7047FEE70907DD
:100DE000090E002804DB00F1E02080F800147047B1
:100DF00000F00F0000F1E02080F8141D70470000A3
:100E00000020034902460A54401C3328FBDB70478C
:100E100024000020FFF7CCFBFFF7B0FFFFF734FF03
:100E20000C4C0325FFF790FFFFF7A6FEFFF732FA01
:100E300094F90300022802D0012803D005E0FFF74F
:100E40005DFA02E0FFF7ACFEE5700520FFF796FAC9
:100E5000E8E7000000000020010202030405060785
:100E600008090A0B0C0D0E0F101000000000000006
:100E70000000010203040607080900009C0E000898
:100E8000000000202400000028010008C00E000817
:100E90002400002094060000440100080000000324
:100EA0000000000000000000000000000000000042
:100EB0000100000010000000000000000024F40009
:04000005080000ED02
:00000001FF
